{
  "transactions": [
    {
      "hash": "0xe68f4da2a23990c9f32d74a5d75b521f61d87c2f21178877b73f1bc4b71c9e01",
      "transactionType": "CREATE",
      "contractName": "GnosisSafeProxyFactory",
      "contractAddress": "0xa6b71e26c5e0845f74c812102ca7114b6a896ab2",
      "function": "createProxyWithNonce(address,bytes,uint256):(address)",
      "arguments": [
        "3e5c63644e683549055b9be8653de26e0b4cd36e",
        "b63e800d000000000000000000000000000000000000000000000000000000000000010000000000000000000000000000000000000000000000000000000000000000010000000000000000000000000000000000000000000000000000000000000000000000000000000000000000000000000000000000000000000000000000018000000000000000000000000000000000000000000000000000000000000000000000000000000000000000000000000000000000000000000000000000000000000000000000000000000000000000000000000000000000000000000000000000000000000000000000000000000000000000000000000000000000000000000000000000000000000000000000000000000000000000000000000000000003000000000000000000000000a5a7468f177d94212cd0fdc0886ee732155c47e90000000000000000000000004fd9d0ee6d6564e80a9ee00c0163fc952d0a45ed0000000000000000000000008aedf14e0b8d010521537cd0c16645452a7d39bc0000000000000000000000000000000000000000000000000000000000000000",
        "0"
      ],
      "transaction": {
        "type": "0x02",
        "from": "0xa5a7468f177d94212cd0fdc0886ee732155c47e9",
        "to": "0xa6b71e26c5e0845f74c812102ca7114b6a896ab2",
        "gas": "0x5f76c",
        "value": "0x0",
        "data": "0x1688f0b90000000000000000000000003e5c63644e683549055b9be8653de26e0b4cd36e0000000000000000000000000000000000000000000000000000000000000060000000000000000000000000000000000000000000000000000000000000000000000000000000000000000000000000000000000000000000000000000001a4b63e800d000000000000000000000000000000000000000000000000000000000000010000000000000000000000000000000000000000000000000000000000000000010000000000000000000000000000000000000000000000000000000000000000000000000000000000000000000000000000000000000000000000000000018000000000000000000000000000000000000000000000000000000000000000000000000000000000000000000000000000000000000000000000000000000000000000000000000000000000000000000000000000000000000000000000000000000000000000000000000000000000000000000000000000000000000000000000000000000000000000000000000000000000000000000000000000000003000000000000000000000000a5a7468f177d94212cd0fdc0886ee732155c47e90000000000000000000000004fd9d0ee6d6564e80a9ee00c0163fc952d0a45ed0000000000000000000000008aedf14e0b8d010521537cd0c16645452a7d39bc000000000000000000000000000000000000000000000000000000000000000000000000000000000000000000000000000000000000000000000000",
        "nonce": "0x2",
        "accessList": []
      },
      "additionalContracts": [
        {
          "transactionType": "CREATE2",
          "address": "0x2c1bdbf7c8a57f02d72e1c03132ba96d5141ca7a",
          "initCode": "608060405234801561001057600080fd5b506040516101e63803806101e68339818101604052602081101561003357600080fd5b8101908080519060200190929190505050600073ffffffffffffffffffffffffffffffffffffffff168173ffffffffffffffffffffffffffffffffffffffff1614156100ca576040517f08c379a00000000000000000000000000000000000000000000000000000000081526004018080602001828103825260228152602001806101c46022913960400191505060405180910390fd5b806000806101000a81548173ffffffffffffffffffffffffffffffffffffffff021916908373ffffffffffffffffffffffffffffffffffffffff1602179055505060ab806101196000396000f3fe608060405273ffffffffffffffffffffffffffffffffffffffff600054167fa619486e0000000000000000000000000000000000000000000000000000000060003514156050578060005260206000f35b3660008037600080366000845af43d6000803e60008114156070573d6000fd5b3d6000f3fea2646970667358221220d1429297349653a4918076d650332de1a1068c5f3e07c5c82360c277770b955264736f6c63430007060033496e76616c69642073696e676c65746f6e20616464726573732070726f76696465640000000000000000000000003e5c63644e683549055b9be8653de26e0b4cd36e"
        }
      ]
    }
  ],
  "receipts": [
    {
      "transactionHash": "0xe68f4da2a23990c9f32d74a5d75b521f61d87c2f21178877b73f1bc4b71c9e01",
      "transactionIndex": "0x3",
      "blockHash": "0xabe0e5d8674e61797b4a6a8ec01261944f2b926581325d32ab8d333e2ccfaf64",
      "blockNumber": "0x71bbd8",
      "from": "0xa5a7468f177d94212cd0fdc0886ee732155c47e9",
      "to": "0xa6b71e26c5e0845f74c812102ca7114b6a896ab2",
      "cumulativeGasUsed": "0x5bbba",
      "gasUsed": "0x451d4",
      "contractAddress": null,
      "logs": [
        {
          "address": "0x2c1bdbf7c8a57f02d72e1c03132ba96d5141ca7a",
          "topics": [
            "0x141df868a6331af528e38c83b7aa03edc19be66e37ae67f9285bf4f8e3c6a1a8",
            "0x000000000000000000000000a6b71e26c5e0845f74c812102ca7114b6a896ab2"
          ],
          "data": "0x00000000000000000000000000000000000000000000000000000000000000800000000000000000000000000000000000000000000000000000000000000001000000000000000000000000000000000000000000000000000000000000000000000000000000000000000000000000000000000000000000000000000000000000000000000000000000000000000000000000000000000000000000000003000000000000000000000000a5a7468f177d94212cd0fdc0886ee732155c47e90000000000000000000000004fd9d0ee6d6564e80a9ee00c0163fc952d0a45ed0000000000000000000000008aedf14e0b8d010521537cd0c16645452a7d39bc",
          "blockHash": "0xabe0e5d8674e61797b4a6a8ec01261944f2b926581325d32ab8d333e2ccfaf64",
          "blockNumber": "0x71bbd8",
          "transactionHash": "0xe68f4da2a23990c9f32d74a5d75b521f61d87c2f21178877b73f1bc4b71c9e01",
          "transactionIndex": "0x3",
          "logIndex": "0x1",
          "removed": false
        },
        {
          "address": "0xa6b71e26c5e0845f74c812102ca7114b6a896ab2",
          "topics": [
            "0x4f51faf6c4561ff95f067657e43439f0f856d97c04d9ec9070a6199ad418e235"
          ],
          "data": "0x0000000000000000000000002c1bdbf7c8a57f02d72e1c03132ba96d5141ca7a0000000000000000000000003e5c63644e683549055b9be8653de26e0b4cd36e",
          "blockHash": "0xabe0e5d8674e61797b4a6a8ec01261944f2b926581325d32ab8d333e2ccfaf64",
          "blockNumber": "0x71bbd8",
          "transactionHash": "0xe68f4da2a23990c9f32d74a5d75b521f61d87c2f21178877b73f1bc4b71c9e01",
          "transactionIndex": "0x3",
          "logIndex": "0x2",
          "removed": false
        }
      ],
      "status": "0x1",
      "logsBloom": "0x00000000000000000000000000000000000000400000000000000000000000000000000000000000000000000000000000000000000000000000000800000000000010000000000000000000000000000000000000000008004000200000000000000000000000000500000000000000000000000000000000000000000000000000000000000000000000000000000100000000000000000000000000000000000000000000000000000000000000000000000000000000000000200000000000000000000000000000000000001000000000000000000000000000000000000000080000000000000000400000000020000000000000100000000000000000",
      "type": "0x2",
      "effectiveGasPrice": "0xb2d060f4"
    }
  ],
  "libraries": [],
  "pending": [],
  "path": "/Users/shunkakinoki/ghq/github.com/LightDotSo/LightDotSo/broadcast/Gnosis.s.sol/5/run-latest.json",
  "returns": {},
  "timestamp": 1661201420,
  "commit": "6f62b43"
}
