{
  "transactions": [
    {
      "hash": "0xe68f4da2a23990c9f32d74a5d75b521f61d87c2f21178877b73f1bc4b71c9e01",
      "transactionType": "CREATE",
      "contractName": "GnosisSafeProxyFactory",
      "contractAddress": "0xa6b71e26c5e0845f74c812102ca7114b6a896ab2",
      "function": "createProxyWithNonce(address,bytes,uint256):(address)",
      "arguments": [
        "3e5c63644e683549055b9be8653de26e0b4cd36e",
        "b63e800d000000000000000000000000000000000000000000000000000000000000010000000000000000000000000000000000000000000000000000000000000000010000000000000000000000000000000000000000000000000000000000000000000000000000000000000000000000000000000000000000000000000000018000000000000000000000000000000000000000000000000000000000000000000000000000000000000000000000000000000000000000000000000000000000000000000000000000000000000000000000000000000000000000000000000000000000000000000000000000000000000000000000000000000000000000000000000000000000000000000000000000000000000000000000000000000003000000000000000000000000a5a7468f177d94212cd0fdc0886ee732155c47e90000000000000000000000004fd9d0ee6d6564e80a9ee00c0163fc952d0a45ed0000000000000000000000008aedf14e0b8d010521537cd0c16645452a7d39bc0000000000000000000000000000000000000000000000000000000000000000",
        "0"
      ],
      "transaction": {
        "type": "0x02",
        "from": "0xa5a7468f177d94212cd0fdc0886ee732155c47e9",
        "to": "0xa6b71e26c5e0845f74c812102ca7114b6a896ab2",
        "gas": "0x5f76c",
        "value": "0x0",
        "data": "0x1688f0b90000000000000000000000003e5c63644e683549055b9be8653de26e0b4cd36e0000000000000000000000000000000000000000000000000000000000000060000000000000000000000000000000000000000000000000000000000000000000000000000000000000000000000000000000000000000000000000000001a4b63e800d000000000000000000000000000000000000000000000000000000000000010000000000000000000000000000000000000000000000000000000000000000010000000000000000000000000000000000000000000000000000000000000000000000000000000000000000000000000000000000000000000000000000018000000000000000000000000000000000000000000000000000000000000000000000000000000000000000000000000000000000000000000000000000000000000000000000000000000000000000000000000000000000000000000000000000000000000000000000000000000000000000000000000000000000000000000000000000000000000000000000000000000000000000000000000000000003000000000000000000000000a5a7468f177d94212cd0fdc0886ee732155c47e90000000000000000000000004fd9d0ee6d6564e80a9ee00c0163fc952d0a45ed0000000000000000000000008aedf14e0b8d010521537cd0c16645452a7d39bc000000000000000000000000000000000000000000000000000000000000000000000000000000000000000000000000000000000000000000000000",
        "nonce": "0x2",
        "accessList": []
      },
      "additionalContracts": [
        {
          "transactionType": "CREATE2",
          "address": "0x2c1bdbf7c8a57f02d72e1c03132ba96d5141ca7a",
          "initCode": "608060405234801561001057600080fd5b506040516101e63803806101e68339818101604052602081101561003357600080fd5b8101908080519060200190929190505050600073ffffffffffffffffffffffffffffffffffffffff168173ffffffffffffffffffffffffffffffffffffffff1614156100ca576040517f08c379a00000000000000000000000000000000000000000000000000000000081526004018080602001828103825260228152602001806101c46022913960400191505060405180910390fd5b806000806101000a81548173ffffffffffffffffffffffffffffffffffffffff021916908373ffffffffffffffffffffffffffffffffffffffff1602179055505060ab806101196000396000f3fe608060405273ffffffffffffffffffffffffffffffffffffffff600054167fa619486e0000000000000000000000000000000000000000000000000000000060003514156050578060005260206000f35b3660008037600080366000845af43d6000803e60008114156070573d6000fd5b3d6000f3fea2646970667358221220d1429297349653a4918076d650332de1a1068c5f3e07c5c82360c277770b955264736f6c63430007060033496e76616c69642073696e676c65746f6e20616464726573732070726f76696465640000000000000000000000003e5c63644e683549055b9be8653de26e0b4cd36e"
        }
      ]
    }
  ],
  "receipts": [],
  "libraries": [],
  "pending": [
    "0xe68f4da2a23990c9f32d74a5d75b521f61d87c2f21178877b73f1bc4b71c9e01"
  ],
  "path": "/Users/shunkakinoki/ghq/github.com/LightDotSo/LightDotSo/broadcast/Gnosis.s.sol/5/run-latest.json",
  "returns": {},
  "timestamp": 1661201400,
  "commit": "6f62b43"
}
