{
  "transactions": [
    {
      "hash": "0xcd325a680b480adc30fed9e0eed5874491d156bbf461fed7ba603a2bcd133c7e",
      "transactionType": "CREATE",
      "contractName": "GnosisSafeProxyFactory",
      "contractAddress": "0xa6b71e26c5e0845f74c812102ca7114b6a896ab2",
      "function": "createProxyWithNonce(address,bytes,uint256):(address)",
      "arguments": [
        "3e5c63644e683549055b9be8653de26e0b4cd36e",
        "b63e800d000000000000000000000000000000000000000000000000000000000000010000000000000000000000000000000000000000000000000000000000000000010000000000000000000000000000000000000000000000000000000000000000000000000000000000000000000000000000000000000000000000000000014000000000000000000000000000000000000000000000000000000000000000000000000000000000000000000000000000000000000000000000000000000000000000000000000000000000000000000000000000000000000000000000000000000000000000000000000000000000000000000000000000000000000000000000000000000000000000000000000000000000000000000000000000000001000000000000000000000000a5a7468f177d94212cd0fdc0886ee732155c47e90000000000000000000000000000000000000000000000000000000000000000",
        "182c72709ae"
      ],
      "transaction": {
        "type": "0x02",
        "from": "0xa5a7468f177d94212cd0fdc0886ee732155c47e9",
        "to": "0xa6b71e26c5e0845f74c812102ca7114b6a896ab2",
        "gas": "0x4fa7b",
        "value": "0x0",
        "data": "0x1688f0b90000000000000000000000003e5c63644e683549055b9be8653de26e0b4cd36e000000000000000000000000000000000000000000000000000000000000006000000000000000000000000000000000000000000000000000000182c72709ae0000000000000000000000000000000000000000000000000000000000000164b63e800d000000000000000000000000000000000000000000000000000000000000010000000000000000000000000000000000000000000000000000000000000000010000000000000000000000000000000000000000000000000000000000000000000000000000000000000000000000000000000000000000000000000000014000000000000000000000000000000000000000000000000000000000000000000000000000000000000000000000000000000000000000000000000000000000000000000000000000000000000000000000000000000000000000000000000000000000000000000000000000000000000000000000000000000000000000000000000000000000000000000000000000000000000000000000000000000001000000000000000000000000a5a7468f177d94212cd0fdc0886ee732155c47e9000000000000000000000000000000000000000000000000000000000000000000000000000000000000000000000000000000000000000000000000",
        "nonce": "0x1",
        "accessList": []
      },
      "additionalContracts": [
        {
          "transactionType": "CREATE2",
          "address": "0xf4288967b5e5a2bfb7e2547a098efc6e9e257ebc",
          "initCode": "608060405234801561001057600080fd5b506040516101e63803806101e68339818101604052602081101561003357600080fd5b8101908080519060200190929190505050600073ffffffffffffffffffffffffffffffffffffffff168173ffffffffffffffffffffffffffffffffffffffff1614156100ca576040517f08c379a00000000000000000000000000000000000000000000000000000000081526004018080602001828103825260228152602001806101c46022913960400191505060405180910390fd5b806000806101000a81548173ffffffffffffffffffffffffffffffffffffffff021916908373ffffffffffffffffffffffffffffffffffffffff1602179055505060ab806101196000396000f3fe608060405273ffffffffffffffffffffffffffffffffffffffff600054167fa619486e0000000000000000000000000000000000000000000000000000000060003514156050578060005260206000f35b3660008037600080366000845af43d6000803e60008114156070573d6000fd5b3d6000f3fea2646970667358221220d1429297349653a4918076d650332de1a1068c5f3e07c5c82360c277770b955264736f6c63430007060033496e76616c69642073696e676c65746f6e20616464726573732070726f76696465640000000000000000000000003e5c63644e683549055b9be8653de26e0b4cd36e"
        }
      ]
    }
  ],
  "receipts": [
    {
      "transactionHash": "0xcd325a680b480adc30fed9e0eed5874491d156bbf461fed7ba603a2bcd133c7e",
      "transactionIndex": "0x0",
      "blockHash": "0xaa34badfa337f4f9ef2438fc95784e3cf945fdbd4c2d475bfcf7e5869051724a",
      "blockNumber": "0x71bbb1",
      "from": "0xa5a7468f177d94212cd0fdc0886ee732155c47e9",
      "to": "0xa6b71e26c5e0845f74c812102ca7114b6a896ab2",
      "cumulativeGasUsed": "0x39ab4",
      "gasUsed": "0x39ab4",
      "contractAddress": null,
      "logs": [
        {
          "address": "0xf4288967b5e5a2bfb7e2547a098efc6e9e257ebc",
          "topics": [
            "0x141df868a6331af528e38c83b7aa03edc19be66e37ae67f9285bf4f8e3c6a1a8",
            "0x000000000000000000000000a6b71e26c5e0845f74c812102ca7114b6a896ab2"
          ],
          "data": "0x00000000000000000000000000000000000000000000000000000000000000800000000000000000000000000000000000000000000000000000000000000001000000000000000000000000000000000000000000000000000000000000000000000000000000000000000000000000000000000000000000000000000000000000000000000000000000000000000000000000000000000000000000000001000000000000000000000000a5a7468f177d94212cd0fdc0886ee732155c47e9",
          "blockHash": "0xaa34badfa337f4f9ef2438fc95784e3cf945fdbd4c2d475bfcf7e5869051724a",
          "blockNumber": "0x71bbb1",
          "transactionHash": "0xcd325a680b480adc30fed9e0eed5874491d156bbf461fed7ba603a2bcd133c7e",
          "transactionIndex": "0x0",
          "logIndex": "0x0",
          "removed": false
        },
        {
          "address": "0xa6b71e26c5e0845f74c812102ca7114b6a896ab2",
          "topics": [
            "0x4f51faf6c4561ff95f067657e43439f0f856d97c04d9ec9070a6199ad418e235"
          ],
          "data": "0x000000000000000000000000f4288967b5e5a2bfb7e2547a098efc6e9e257ebc0000000000000000000000003e5c63644e683549055b9be8653de26e0b4cd36e",
          "blockHash": "0xaa34badfa337f4f9ef2438fc95784e3cf945fdbd4c2d475bfcf7e5869051724a",
          "blockNumber": "0x71bbb1",
          "transactionHash": "0xcd325a680b480adc30fed9e0eed5874491d156bbf461fed7ba603a2bcd133c7e",
          "transactionIndex": "0x0",
          "logIndex": "0x1",
          "removed": false
        }
      ],
      "status": "0x1",
      "logsBloom": "0x00000000000000000000000000000000000000400000000000000000000000000000000000000000000000000000000000000000000000000000000000000000000010000000000000000000000000000000000000000008000000200000000000000000000000002500000000000000000000000000000000000000000000000000000000000000000000000000000000000000000000000000000000000000000000000000000000000000000000000000000000000000000000200000000000000000000000000000000000001000000000000000000000000000100000000000080000000000000000400200000020000000000000100000000000000000",
      "type": "0x2",
      "effectiveGasPrice": "0xb2d06e62"
    }
  ],
  "libraries": [],
  "pending": [],
  "path": "/Users/shunkakinoki/ghq/github.com/LightDotSo/LightDotSo/broadcast/Gnosis.s.sol/5/run-latest.json",
  "returns": {},
  "timestamp": 1661200876,
  "commit": "29ec723"
}